{
    "contractName": "Demo",
    "abi": [
        {
            "inputs": [],
            "name": "myBool",
            "outputs": [
                {
                    "internalType": "bool",
                    "name": "",
                    "type": "bool"
                }
            ],
            "stateMutability": "view",
            "type": "function"
        },
        {
            "inputs": [],
            "name": "str",
            "outputs": [
                {
                    "internalType": "string",
                    "name": "",
                    "type": "string"
                }
            ],
            "stateMutability": "view",
            "type": "function"
        }
    ],
    "bytecode": "60c060405260046080908152630c4c8ccd60e21b60a05260019061002390826100d5565b5034801561003057600080fd5b50610194565b634e487b7160e01b600052604160045260246000fd5b600181811c9082168061006057607f821691505b60208210810361008057634e487b7160e01b600052602260045260246000fd5b50919050565b601f8211156100d057600081815260208120601f850160051c810160208610156100ad5750805b601f850160051c820191505b818110156100cc578281556001016100b9565b5050505b505050565b81516001600160401b038111156100ee576100ee610036565b610102816100fc845461004c565b84610086565b602080601f831160018114610137576000841561011f5750858301515b600019600386901b1c1916600185901b1785556100cc565b600085815260208120601f198616915b8281101561016657888601518255948401946001909101908401610147565b50858210156101845787850151600019600388901b60f8161c191681555b5050505050600190811b01905550565b6101be806101a36000396000f3fe608060405234801561001057600080fd5b50600436106100365760003560e01c80636deecdbe1461003b578063c15bae841461005d575b600080fd5b6000546100489060ff1681565b60405190151581526020015b60405180910390f35b610065610072565b6040516100549190610100565b6001805461007f9061014e565b80601f01602080910402602001604051908101604052809291908181526020018280546100ab9061014e565b80156100f85780601f106100cd576101008083540402835291602001916100f8565b820191906000526020600020905b8154815290600101906020018083116100db57829003601f168201915b505050505081565b600060208083528351808285015260005b8181101561012d57858101830151858201604001528201610111565b506000604082860101526040601f19601f8301168501019250505092915050565b600181811c9082168061016257607f821691505b60208210810361018257634e487b7160e01b600052602260045260246000fd5b5091905056fea2646970667358221220bb14afbd878f6ea9b58a3db96d8d45b72d01ebf928ed9c7f9e03c6e5f4a52d9664736f6c63430008130033",
    "sourcePath": "h:/Projects/Solidity/contracts/demo.sol",
    "compiler": {
        "name": "solc",
        "version": "0.8.19+commit.7dd6d404"
    },
    "functionHashes": {
        "myBool()": "6deecdbe",
        "str()": "c15bae84"
    },
    "gasEstimates": {
        "creation": {
            "codeDepositCost": "89200",
            "executionCost": "infinite",
            "totalCost": "infinite"
        },
        "external": {
            "myBool()": "2277",
            "str()": "infinite"
        }
    }
}